{
  "contractName": "Client",
  "abi": [
    {
      "inputs": [
        {
          "internalType": "contract IOracle",
          "name": "_oracle",
          "type": "address"
        }
      ],
      "stateMutability": "nonpayable",
      "type": "constructor"
    },
    {
      "inputs": [],
      "name": "oracle",
      "outputs": [
        {
          "internalType": "contract IOracle",
          "name": "",
          "type": "address"
        }
      ],
      "stateMutability": "view",
      "type": "function",
      "constant": true
    },
    {
      "inputs": [],
      "name": "consume",
      "outputs": [],
      "stateMutability": "nonpayable",
      "type": "function"
    }
  ],
  "bytecode": "0x608060405234801561001057600080fd5b506040516106433803806106438339818101604052810190610032919061008d565b806000806101000a81548173ffffffffffffffffffffffffffffffffffffffff021916908373ffffffffffffffffffffffffffffffffffffffff16021790555050610111565b600081519050610087816100fa565b92915050565b60006020828403121561009f57600080fd5b60006100ad84828501610078565b91505092915050565b60006100c1826100da565b9050919050565b60006100d3826100b6565b9050919050565b600073ffffffffffffffffffffffffffffffffffffffff82169050919050565b610103816100c8565b811461010e57600080fd5b50565b610523806101206000396000f3fe608060405234801561001057600080fd5b50600436106100365760003560e01c80631dedc6f71461003b5780637dc0d1d014610045575b600080fd5b610043610063565b005b61004d6101d6565b60405161005a9190610381565b60405180910390f35b600060405160200161007490610351565b60405160208183030381529060405280519060200120905060008060008060009054906101000a900473ffffffffffffffffffffffffffffffffffffffff1673ffffffffffffffffffffffffffffffffffffffff166354f6127f856040518263ffffffff1660e01b81526004016100eb9190610366565b60606040518083038186803b15801561010357600080fd5b505afa158015610117573d6000803e3d6000fd5b505050506040513d601f19601f8201168201806040525081019061013b9190610224565b92509250925082610181576040517f08c379a00000000000000000000000000000000000000000000000000000000081526004016101789061039c565b60405180910390fd5b60784261018e91906103f8565b8210156101d0576040517f08c379a00000000000000000000000000000000000000000000000000000000081526004016101c7906103bc565b60405180910390fd5b50505050565b60008054906101000a900473ffffffffffffffffffffffffffffffffffffffff1681565b600081519050610209816104bf565b92915050565b60008151905061021e816104d6565b92915050565b60008060006060848603121561023957600080fd5b6000610247868287016101fa565b93505060206102588682870161020f565b92505060406102698682870161020f565b9150509250925092565b61027c81610438565b82525050565b61028b8161046c565b82525050565b600061029e601a836103dc565b91507f436c69656e743a205072696365206e6f74207265636f726465640000000000006000830152602082019050919050565b60006102de6015836103dc565b91507f436c69656e743a20507269636520746f6f206f6c6400000000000000000000006000830152602082019050919050565b600061031e6007836103ed565b91507f4254432f555344000000000000000000000000000000000000000000000000006000830152600782019050919050565b600061035c82610311565b9150819050919050565b600060208201905061037b6000830184610273565b92915050565b60006020820190506103966000830184610282565b92915050565b600060208201905081810360008301526103b581610291565b9050919050565b600060208201905081810360008301526103d5816102d1565b9050919050565b600082825260208201905092915050565b600081905092915050565b600061040382610462565b915061040e83610462565b92508282101561042157610420610490565b5b828203905092915050565b60008115159050919050565b6000819050919050565b600073ffffffffffffffffffffffffffffffffffffffff82169050919050565b6000819050919050565b60006104778261047e565b9050919050565b600061048982610442565b9050919050565b7f4e487b7100000000000000000000000000000000000000000000000000000000600052601160045260246000fd5b6104c88161042c565b81146104d357600080fd5b50565b6104df81610462565b81146104ea57600080fd5b5056fea26469706673582212201a40205e7f0e17c3f7ff92a9a2bce99b067dc7d458c712e7d01cc71a72d1189764736f6c63430008000033",
  "immutableReferences": {},
  "source": "// SPDX-License-Identifier: MIT\npragma solidity 0.8.0;\n\nimport \"./interfaces/IOracle.sol\";\n\ncontract Client{\n    IOracle public oracle;\n    \n    constructor(IOracle _oracle){\n        oracle = _oracle;\n    }\n    \n    function consume() public{\n        bytes32 key = keccak256(abi.encodePacked(\"BTC/USD\"));\n        (bool recorded, uint date, uint data) = oracle.getData(key);\n        require(recorded, \"Client: Price not recorded\");\n        require(date >= block.timestamp - 2 minutes, \"Client: Price too old\");\n        //do something with price\n    }\n}",
  "sourcePath": "C:/Users/user/Desktop/Playground/Eattheblocks/Oracles/contracts/Client.sol",
  "compiler": {
    "name": "solc",
    "version": "0.8.0+commit.c7dfd78e.Emscripten.clang"
  },
  "schemaVersion": "3.3.4",
  "updatedAt": "2021-07-12T15:04:19.178Z",
  "networkType": "ethereum",
  "devdoc": {
    "kind": "dev",
    "methods": {},
    "version": 1
  },
  "userdoc": {
    "kind": "user",
    "methods": {},
    "version": 1
  }
}