{
  "contractName": "Oracle",
  "abi": [
    {
      "inputs": [],
      "stateMutability": "nonpayable",
      "type": "constructor"
    },
    {
      "inputs": [],
      "name": "admin",
      "outputs": [
        {
          "internalType": "address",
          "name": "",
          "type": "address"
        }
      ],
      "stateMutability": "view",
      "type": "function",
      "constant": true
    },
    {
      "inputs": [
        {
          "internalType": "bytes32",
          "name": "key",
          "type": "bytes32"
        },
        {
          "internalType": "uint256",
          "name": "payload",
          "type": "uint256"
        }
      ],
      "name": "record",
      "outputs": [],
      "stateMutability": "nonpayable",
      "type": "function"
    },
    {
      "inputs": [
        {
          "internalType": "address",
          "name": "reporter",
          "type": "address"
        },
        {
          "internalType": "bool",
          "name": "isReporter",
          "type": "bool"
        }
      ],
      "name": "updateReporter",
      "outputs": [],
      "stateMutability": "nonpayable",
      "type": "function"
    },
    {
      "inputs": [
        {
          "internalType": "bytes32",
          "name": "key",
          "type": "bytes32"
        }
      ],
      "name": "getData",
      "outputs": [
        {
          "internalType": "bool",
          "name": "recorded",
          "type": "bool"
        },
        {
          "internalType": "uint256",
          "name": "_date",
          "type": "uint256"
        },
        {
          "internalType": "uint256",
          "name": "_price",
          "type": "uint256"
        }
      ],
      "stateMutability": "view",
      "type": "function",
      "constant": true
    }
  ],
  "bytecode": "0x608060405234801561001057600080fd5b5033600260006101000a81548173ffffffffffffffffffffffffffffffffffffffff021916908373ffffffffffffffffffffffffffffffffffffffff160217905550610589806100616000396000f3fe608060405234801561001057600080fd5b506004361061004c5760003560e01c80630f5bcc72146100515780631ec6e24f1461006d57806354f6127f14610089578063f851a440146100bb575b600080fd5b61006b60048036038101906100669190610353565b6100d9565b005b610087600480360381019061008291906102ee565b6101a7565b005b6100a3600480360381019061009e919061032a565b610201565b6040516100b29392919061043d565b60405180910390f35b6100c3610274565b6040516100d09190610422565b60405180910390f35b6000803373ffffffffffffffffffffffffffffffffffffffff1673ffffffffffffffffffffffffffffffffffffffff16815260200190815260200160002060009054906101000a900460ff16610164576040517f08c379a000000000000000000000000000000000000000000000000000000000815260040161015b90610474565b60405180910390fd5b6040518060400160405280428152602001828152506001600084815260200190815260200160002060008201518160000155602082015181600101559050505050565b806000808473ffffffffffffffffffffffffffffffffffffffff1673ffffffffffffffffffffffffffffffffffffffff16815260200190815260200160002060006101000a81548160ff0219169083151502179055505050565b600080600080600160008681526020019081526020016000206040518060400160405290816000820154815260200160018201548152505090506000816000015114156102595760008060009350935093505061026d565b600181600001518260200151935093509350505b9193909250565b600260009054906101000a900473ffffffffffffffffffffffffffffffffffffffff1681565b6000813590506102a9816104f7565b92915050565b6000813590506102be8161050e565b92915050565b6000813590506102d381610525565b92915050565b6000813590506102e88161053c565b92915050565b6000806040838503121561030157600080fd5b600061030f8582860161029a565b9250506020610320858286016102af565b9150509250929050565b60006020828403121561033c57600080fd5b600061034a848285016102c4565b91505092915050565b6000806040838503121561036657600080fd5b6000610374858286016102c4565b9250506020610385858286016102d9565b9150509250929050565b610398816104a5565b82525050565b6103a7816104b7565b82525050565b60006103ba602183610494565b91507f4f7261636c653a206f6e6c79207265706f72746572732063616e207265636f7260008301527f64000000000000000000000000000000000000000000000000000000000000006020830152604082019050919050565b61041c816104ed565b82525050565b6000602082019050610437600083018461038f565b92915050565b6000606082019050610452600083018661039e565b61045f6020830185610413565b61046c6040830184610413565b949350505050565b6000602082019050818103600083015261048d816103ad565b9050919050565b600082825260208201905092915050565b60006104b0826104cd565b9050919050565b60008115159050919050565b6000819050919050565b600073ffffffffffffffffffffffffffffffffffffffff82169050919050565b6000819050919050565b610500816104a5565b811461050b57600080fd5b50565b610517816104b7565b811461052257600080fd5b50565b61052e816104c3565b811461053957600080fd5b50565b610545816104ed565b811461055057600080fd5b5056fea2646970667358221220b0608d5f87ea539ee85249ed73e19c6302ba0bbf8025a49b473128bfe850704364736f6c63430008000033",
  "immutableReferences": {},
  "source": "// SPDX-License-Identifier: MIT\n\npragma solidity 0.8.0;\n\ncontract Oracle{\n    struct Data{\n        uint date;\n        uint price;\n    }\n    \n    mapping(address => bool) reporters;\n    mapping(bytes32 => Data) private data;\n    address public admin;\n    \n    constructor (){\n        admin = msg.sender;\n    }\n    \n    function record(bytes32 key, uint payload) public{\n        require(reporters[msg.sender], \"Oracle: only reporters can record\");\n        data[key] = Data(block.timestamp, payload);\n    }\n    \n    function updateReporter(address reporter, bool isReporter) public{\n        reporters[reporter] = isReporter;\n    }\n    \n    function getData(bytes32 key) public view returns(bool recorded, uint _date, uint _price){\n        Data memory value = data[key];\n        if (value.date == 0){\n            return (false, 0, 0);\n        }\n        return (true, value.date, value.price);\n    }\n}",
  "sourcePath": "C:/Users/user/Desktop/Playground/Eattheblocks/Oracles/contracts/Oracle.sol",
  "compiler": {
    "name": "solc",
    "version": "0.8.0+commit.c7dfd78e.Emscripten.clang"
  },
  "schemaVersion": "3.3.4",
  "updatedAt": "2021-07-12T15:04:19.153Z",
  "networkType": "ethereum",
  "devdoc": {
    "kind": "dev",
    "methods": {},
    "version": 1
  },
  "userdoc": {
    "kind": "user",
    "methods": {},
    "version": 1
  }
}